{
  "_format": "hh-sol-artifact-1",
  "contractName": "PredictionMarket",
  "sourceName": "contracts/PredictionMarket.sol",
  "abi": [
    {
      "inputs": [
        {
          "internalType": "address",
          "name": "_oracle",
          "type": "address"
        },
        {
          "internalType": "address",
          "name": "_collateralToken",
          "type": "address"
        }
      ],
      "stateMutability": "nonpayable",
      "type": "constructor"
    },
    {
      "anonymous": false,
      "inputs": [
        {
          "indexed": true,
          "internalType": "uint256",
          "name": "marketId",
          "type": "uint256"
        },
        {
          "indexed": true,
          "internalType": "address",
          "name": "user",
          "type": "address"
        },
        {
          "indexed": false,
          "internalType": "uint256",
          "name": "option",
          "type": "uint256"
        },
        {
          "indexed": false,
          "internalType": "uint256",
          "name": "amount",
          "type": "uint256"
        }
      ],
      "name": "BetPlaced",
      "type": "event"
    },
    {
      "anonymous": false,
      "inputs": [
        {
          "indexed": true,
          "internalType": "uint256",
          "name": "marketId",
          "type": "uint256"
        },
        {
          "indexed": false,
          "internalType": "string",
          "name": "question",
          "type": "string"
        },
        {
          "indexed": false,
          "internalType": "string[]",
          "name": "options",
          "type": "string[]"
        },
        {
          "indexed": false,
          "internalType": "uint256",
          "name": "resolutionTime",
          "type": "uint256"
        }
      ],
      "name": "MarketCreated",
      "type": "event"
    },
    {
      "anonymous": false,
      "inputs": [
        {
          "indexed": true,
          "internalType": "uint256",
          "name": "marketId",
          "type": "uint256"
        },
        {
          "indexed": false,
          "internalType": "uint256",
          "name": "winningOption",
          "type": "uint256"
        }
      ],
      "name": "MarketResolved",
      "type": "event"
    },
    {
      "anonymous": false,
      "inputs": [
        {
          "indexed": true,
          "internalType": "uint256",
          "name": "marketId",
          "type": "uint256"
        },
        {
          "indexed": true,
          "internalType": "address",
          "name": "user",
          "type": "address"
        },
        {
          "indexed": false,
          "internalType": "uint256",
          "name": "amount",
          "type": "uint256"
        }
      ],
      "name": "WinningsClaimed",
      "type": "event"
    },
    {
      "inputs": [
        {
          "internalType": "uint256",
          "name": "marketId",
          "type": "uint256"
        }
      ],
      "name": "claimWinnings",
      "outputs": [],
      "stateMutability": "nonpayable",
      "type": "function"
    },
    {
      "inputs": [],
      "name": "collateralToken",
      "outputs": [
        {
          "internalType": "contract IERC20",
          "name": "",
          "type": "address"
        }
      ],
      "stateMutability": "view",
      "type": "function"
    },
    {
      "inputs": [
        {
          "internalType": "string",
          "name": "question",
          "type": "string"
        },
        {
          "internalType": "string[]",
          "name": "options",
          "type": "string[]"
        },
        {
          "internalType": "uint256",
          "name": "resolutionTime",
          "type": "uint256"
        }
      ],
      "name": "createMarket",
      "outputs": [],
      "stateMutability": "nonpayable",
      "type": "function"
    },
    {
      "inputs": [
        {
          "internalType": "uint256",
          "name": "marketId",
          "type": "uint256"
        },
        {
          "internalType": "uint256",
          "name": "winningOption",
          "type": "uint256"
        }
      ],
      "name": "finalizeMarket",
      "outputs": [],
      "stateMutability": "nonpayable",
      "type": "function"
    },
    {
      "inputs": [
        {
          "internalType": "uint256",
          "name": "marketId",
          "type": "uint256"
        }
      ],
      "name": "getMarketOptions",
      "outputs": [
        {
          "internalType": "string[]",
          "name": "",
          "type": "string[]"
        }
      ],
      "stateMutability": "view",
      "type": "function"
    },
    {
      "inputs": [
        {
          "internalType": "uint256",
          "name": "marketId",
          "type": "uint256"
        },
        {
          "internalType": "uint256",
          "name": "optionId",
          "type": "uint256"
        }
      ],
      "name": "getOptionBets",
      "outputs": [
        {
          "internalType": "uint256",
          "name": "",
          "type": "uint256"
        }
      ],
      "stateMutability": "view",
      "type": "function"
    },
    {
      "inputs": [
        {
          "internalType": "uint256",
          "name": "marketId",
          "type": "uint256"
        },
        {
          "internalType": "uint256",
          "name": "optionId",
          "type": "uint256"
        }
      ],
      "name": "getUserBets",
      "outputs": [
        {
          "internalType": "uint256",
          "name": "",
          "type": "uint256"
        }
      ],
      "stateMutability": "view",
      "type": "function"
    },
    {
      "inputs": [],
      "name": "marketCount",
      "outputs": [
        {
          "internalType": "uint256",
          "name": "",
          "type": "uint256"
        }
      ],
      "stateMutability": "view",
      "type": "function"
    },
    {
      "inputs": [
        {
          "internalType": "uint256",
          "name": "",
          "type": "uint256"
        }
      ],
      "name": "markets",
      "outputs": [
        {
          "internalType": "string",
          "name": "question",
          "type": "string"
        },
        {
          "internalType": "uint256",
          "name": "resolutionTime",
          "type": "uint256"
        },
        {
          "internalType": "bool",
          "name": "resolved",
          "type": "bool"
        },
        {
          "internalType": "uint256",
          "name": "winningOption",
          "type": "uint256"
        }
      ],
      "stateMutability": "view",
      "type": "function"
    },
    {
      "inputs": [],
      "name": "oracle",
      "outputs": [
        {
          "internalType": "contract OptimisticOracleV2Interface",
          "name": "",
          "type": "address"
        }
      ],
      "stateMutability": "view",
      "type": "function"
    },
    {
      "inputs": [
        {
          "internalType": "uint256",
          "name": "marketId",
          "type": "uint256"
        },
        {
          "internalType": "uint256",
          "name": "option",
          "type": "uint256"
        },
        {
          "internalType": "uint256",
          "name": "amount",
          "type": "uint256"
        }
      ],
      "name": "placeBet",
      "outputs": [],
      "stateMutability": "nonpayable",
      "type": "function"
    },
    {
      "inputs": [
        {
          "internalType": "uint256",
          "name": "marketId",
          "type": "uint256"
        }
      ],
      "name": "requestResolution",
      "outputs": [],
      "stateMutability": "nonpayable",
      "type": "function"
    }
  ],
  "bytecode": "608060405234801561000f575f80fd5b5060405161262e38038061262e83398181016040528101906100319190610115565b815f806101000a81548173ffffffffffffffffffffffffffffffffffffffff021916908373ffffffffffffffffffffffffffffffffffffffff1602179055508060015f6101000a81548173ffffffffffffffffffffffffffffffffffffffff021916908373ffffffffffffffffffffffffffffffffffffffff1602179055505050610153565b5f80fd5b5f73ffffffffffffffffffffffffffffffffffffffff82169050919050565b5f6100e4826100bb565b9050919050565b6100f4816100da565b81146100fe575f80fd5b50565b5f8151905061010f816100eb565b92915050565b5f806040838503121561012b5761012a6100b7565b5b5f61013885828601610101565b925050602061014985828601610101565b9150509250929050565b6124ce806101605f395ff3fe608060405234801561000f575f80fd5b50600436106100b2575f3560e01c8063af8182df1161006f578063af8182df1461019c578063b1283e77146101b8578063b2016bd4146101eb578063e71c969714610209578063ec97908214610225578063fbc529cb14610243576100b2565b806305d45d5f146100b6578063416a4f19146100e657806341b4af5714610102578063677bd9ff14610132578063796c778b1461014e5780637dc0d1d01461017e575b5f80fd5b6100d060048036038101906100cb91906110ae565b61025f565b6040516100dd9190611204565b60405180910390f35b61010060048036038101906100fb91906110ae565b610347565b005b61011c60048036038101906101179190611224565b6106c8565b6040516101299190611271565b60405180910390f35b61014c600480360381019061014791906110ae565b610730565b005b61016860048036038101906101639190611224565b610a43565b6040516101759190611271565b60405180910390f35b610186610a70565b6040516101939190611304565b60405180910390f35b6101b660048036038101906101b19190611224565b610a93565b005b6101d260048036038101906101cd91906110ae565b610b5f565b6040516101e2949392919061137f565b60405180910390f35b6101f3610c1d565b60405161020091906113e9565b60405180910390f35b610223600480360381019061021e9190611402565b610c42565b005b61022d610e68565b60405161023a9190611271565b60405180910390f35b61025d60048036038101906102589190611660565b610e6e565b005b606060025f8381526020019081526020015f20600101805480602002602001604051908101604052809291908181526020015f905b8282101561033c578382905f5260205f200180546102b190611715565b80601f01602080910402602001604051908101604052809291908181526020018280546102dd90611715565b80156103285780601f106102ff57610100808354040283529160200191610328565b820191905f5260205f20905b81548152906001019060200180831161030b57829003601f168201915b505050505081526020019060010190610294565b505050509050919050565b5f60025f8381526020019081526020015f209050806003015f9054906101000a900460ff16156103ac576040517f08c379a00000000000000000000000000000000000000000000000000000000081526004016103a39061178f565b60405180910390fd5b80600201544210156103f3576040517f08c379a00000000000000000000000000000000000000000000000000000000081526004016103ea906117f7565b60405180910390fd5b5f60405160200161040390611869565b6040516020818303038152906040528051906020012090505f825f0160405160200161042f919061190f565b60405160208183030381529060405290505f4290505f8054906101000a900473ffffffffffffffffffffffffffffffffffffffff1673ffffffffffffffffffffffffffffffffffffffff166311df92f184838560015f9054906101000a900473ffffffffffffffffffffffffffffffffffffffff165f6040518663ffffffff1660e01b81526004016104c59594939291906119c8565b6020604051808303815f875af11580156104e1573d5f803e3d5ffd5b505050506040513d601f19601f820116820180604052508101906105059190611a34565b505f8054906101000a900473ffffffffffffffffffffffffffffffffffffffff1673ffffffffffffffffffffffffffffffffffffffff16635e9a79a9308584866040518563ffffffff1660e01b81526004016105649493929190611a7f565b6020604051808303815f875af1158015610580573d5f803e3d5ffd5b505050506040513d601f19601f820116820180604052508101906105a49190611a34565b505f805f9054906101000a900473ffffffffffffffffffffffffffffffffffffffff1673ffffffffffffffffffffffffffffffffffffffff1663a9904f9b308685876040518563ffffffff1660e01b81526004016106059493929190611a7f565b61020060405180830381865afa158015610621573d5f803e3d5ffd5b505050506040513d601f19601f820116820180604052508101906106459190611d36565b60c0015190505f6001821461065a575f61065d565b60015b60ff1690506001866003015f6101000a81548160ff021916908315150217905550808660040181905550867f6dfc24f0f2fb42e49fb4fa3ffa8abb148cab908a1fb8335b3f128a08b2594af1826040516106b79190611271565b60405180910390a250505050505050565b5f60025f8481526020019081526020015f206006015f3373ffffffffffffffffffffffffffffffffffffffff1673ffffffffffffffffffffffffffffffffffffffff1681526020019081526020015f205f8381526020019081526020015f2054905092915050565b5f60025f8381526020019081526020015f209050806003015f9054906101000a900460ff16610794576040517f08c379a000000000000000000000000000000000000000000000000000000000815260040161078b90611dac565b60405180910390fd5b5f816006015f3373ffffffffffffffffffffffffffffffffffffffff1673ffffffffffffffffffffffffffffffffffffffff1681526020019081526020015f205f836004015481526020019081526020015f205490505f811161082c576040517f08c379a000000000000000000000000000000000000000000000000000000000815260040161082390611e14565b60405180910390fd5b5f826005015f846004015481526020019081526020015f205490505f8160015f9054906101000a900473ffffffffffffffffffffffffffffffffffffffff1673ffffffffffffffffffffffffffffffffffffffff166370a08231306040518263ffffffff1660e01b81526004016108a39190611e32565b602060405180830381865afa1580156108be573d5f803e3d5ffd5b505050506040513d601f19601f820116820180604052508101906108e29190611a34565b846108ed9190611e78565b6108f79190611ee6565b905060015f9054906101000a900473ffffffffffffffffffffffffffffffffffffffff1673ffffffffffffffffffffffffffffffffffffffff1663a9059cbb33836040518363ffffffff1660e01b8152600401610955929190611f16565b6020604051808303815f875af1158015610971573d5f803e3d5ffd5b505050506040513d601f19601f820116820180604052508101906109959190611f3d565b505f846006015f3373ffffffffffffffffffffffffffffffffffffffff1673ffffffffffffffffffffffffffffffffffffffff1681526020019081526020015f205f866004015481526020019081526020015f20819055503373ffffffffffffffffffffffffffffffffffffffff16857f5380cf6fe903b40c6d5a9e0dfbca2f3a423f0a21520b4d5947ed5169bdba946d83604051610a349190611271565b60405180910390a35050505050565b5f60025f8481526020019081526020015f206005015f8381526020019081526020015f2054905092915050565b5f8054906101000a900473ffffffffffffffffffffffffffffffffffffffff1681565b5f60025f8481526020019081526020015f2090505f1515816003015f9054906101000a900460ff16151514610afd576040517f08c379a0000000000000000000000000000000000000000000000000000000008152600401610af49061178f565b60405180910390fd5b6001816003015f6101000a81548160ff021916908315150217905550818160040181905550827f6dfc24f0f2fb42e49fb4fa3ffa8abb148cab908a1fb8335b3f128a08b2594af183604051610b529190611271565b60405180910390a2505050565b6002602052805f5260405f205f91509050805f018054610b7e90611715565b80601f0160208091040260200160405190810160405280929190818152602001828054610baa90611715565b8015610bf55780601f10610bcc57610100808354040283529160200191610bf5565b820191905f5260205f20905b815481529060010190602001808311610bd857829003601f168201915b505050505090806002015490806003015f9054906101000a900460ff16908060040154905084565b60015f9054906101000a900473ffffffffffffffffffffffffffffffffffffffff1681565b5f60025f8581526020019081526020015f20905080600201544210610c9c576040517f08c379a0000000000000000000000000000000000000000000000000000000008152600401610c9390611fb2565b60405180910390fd5b80600101805490508310610ce5576040517f08c379a0000000000000000000000000000000000000000000000000000000008152600401610cdc9061201a565b60405180910390fd5b60015f9054906101000a900473ffffffffffffffffffffffffffffffffffffffff1673ffffffffffffffffffffffffffffffffffffffff166323b872dd3330856040518463ffffffff1660e01b8152600401610d4393929190612038565b6020604051808303815f875af1158015610d5f573d5f803e3d5ffd5b505050506040513d601f19601f82011682018060405250810190610d839190611f3d565b5081816005015f8581526020019081526020015f205f828254610da6919061206d565b9250508190555081816006015f3373ffffffffffffffffffffffffffffffffffffffff1673ffffffffffffffffffffffffffffffffffffffff1681526020019081526020015f205f8581526020019081526020015f205f828254610e0a919061206d565b925050819055503373ffffffffffffffffffffffffffffffffffffffff16847f1b8a9031cb9351278d70a994f81536e9e08c91162e64f92b2fe4766fb7a891b48585604051610e5a9291906120a0565b60405180910390a350505050565b60035481565b6001825111610eb2576040517f08c379a0000000000000000000000000000000000000000000000000000000008152600401610ea990612111565b60405180910390fd5b428111610ef4576040517f08c379a0000000000000000000000000000000000000000000000000000000008152600401610eeb9061219f565b60405180910390fd5b5f60025f60035481526020019081526020015f20905083815f019081610f1a919061233f565b5082816001019080519060200190610f33929190610f98565b508181600201819055506003547fdb6ae5c511cd814e8b6d7dd1f64d32f3bd488e4361486cdcfa2e2debaeddca87858585604051610f739392919061240e565b60405180910390a260035f815480929190610f8d90612451565b919050555050505050565b828054828255905f5260205f20908101928215610fde579160200282015b82811115610fdd578251829081610fcd919061233f565b5091602001919060010190610fb6565b5b509050610feb9190610fef565b5090565b5b8082111561100e575f81816110059190611012565b50600101610ff0565b5090565b50805461101e90611715565b5f825580601f1061102f575061104c565b601f0160209004905f5260205f209081019061104b919061104f565b5b50565b5b80821115611066575f815f905550600101611050565b5090565b5f604051905090565b5f80fd5b5f80fd5b5f819050919050565b61108d8161107b565b8114611097575f80fd5b50565b5f813590506110a881611084565b92915050565b5f602082840312156110c3576110c2611073565b5b5f6110d08482850161109a565b91505092915050565b5f81519050919050565b5f82825260208201905092915050565b5f819050602082019050919050565b5f81519050919050565b5f82825260208201905092915050565b8281835e5f83830152505050565b5f601f19601f8301169050919050565b5f61114482611102565b61114e818561110c565b935061115e81856020860161111c565b6111678161112a565b840191505092915050565b5f61117d838361113a565b905092915050565b5f602082019050919050565b5f61119b826110d9565b6111a581856110e3565b9350836020820285016111b7856110f3565b805f5b858110156111f257848403895281516111d38582611172565b94506111de83611185565b925060208a019950506001810190506111ba565b50829750879550505050505092915050565b5f6020820190508181035f83015261121c8184611191565b905092915050565b5f806040838503121561123a57611239611073565b5b5f6112478582860161109a565b92505060206112588582860161109a565b9150509250929050565b61126b8161107b565b82525050565b5f6020820190506112845f830184611262565b92915050565b5f73ffffffffffffffffffffffffffffffffffffffff82169050919050565b5f819050919050565b5f6112cc6112c76112c28461128a565b6112a9565b61128a565b9050919050565b5f6112dd826112b2565b9050919050565b5f6112ee826112d3565b9050919050565b6112fe816112e4565b82525050565b5f6020820190506113175f8301846112f5565b92915050565b5f82825260208201905092915050565b5f61133782611102565b611341818561131d565b935061135181856020860161111c565b61135a8161112a565b840191505092915050565b5f8115159050919050565b61137981611365565b82525050565b5f6080820190508181035f830152611397818761132d565b90506113a66020830186611262565b6113b36040830185611370565b6113c06060830184611262565b95945050505050565b5f6113d3826112d3565b9050919050565b6113e3816113c9565b82525050565b5f6020820190506113fc5f8301846113da565b92915050565b5f805f6060848603121561141957611418611073565b5b5f6114268682870161109a565b93505060206114378682870161109a565b92505060406114488682870161109a565b9150509250925092565b5f80fd5b5f80fd5b7f4e487b71000000000000000000000000000000000000000000000000000000005f52604160045260245ffd5b6114908261112a565b810181811067ffffffffffffffff821117156114af576114ae61145a565b5b80604052505050565b5f6114c161106a565b90506114cd8282611487565b919050565b5f67ffffffffffffffff8211156114ec576114eb61145a565b5b6114f58261112a565b9050602081019050919050565b828183375f83830152505050565b5f61152261151d846114d2565b6114b8565b90508281526020810184848401111561153e5761153d611456565b5b611549848285611502565b509392505050565b5f82601f83011261156557611564611452565b5b8135611575848260208601611510565b91505092915050565b5f67ffffffffffffffff8211156115985761159761145a565b5b602082029050602081019050919050565b5f80fd5b5f6115bf6115ba8461157e565b6114b8565b905080838252602082019050602084028301858111156115e2576115e16115a9565b5b835b8181101561162957803567ffffffffffffffff81111561160757611606611452565b5b8086016116148982611551565b855260208501945050506020810190506115e4565b5050509392505050565b5f82601f83011261164757611646611452565b5b81356116578482602086016115ad565b91505092915050565b5f805f6060848603121561167757611676611073565b5b5f84013567ffffffffffffffff81111561169457611693611077565b5b6116a086828701611551565b935050602084013567ffffffffffffffff8111156116c1576116c0611077565b5b6116cd86828701611633565b92505060406116de8682870161109a565b9150509250925092565b7f4e487b71000000000000000000000000000000000000000000000000000000005f52602260045260245ffd5b5f600282049050600182168061172c57607f821691505b60208210810361173f5761173e6116e8565b5b50919050565b7f4d61726b657420616c7265616479207265736f6c7665640000000000000000005f82015250565b5f61177960178361131d565b915061178482611745565b602082019050919050565b5f6020820190508181035f8301526117a68161176d565b9050919050565b7f4d61726b6574206e6f7420726561647920666f72207265736f6c7574696f6e005f82015250565b5f6117e1601f8361131d565b91506117ec826117ad565b602082019050919050565b5f6020820190508181035f83015261180e816117d5565b9050919050565b5f81905092915050565b7f5945535f4f525f4e4f5f515545525900000000000000000000000000000000005f82015250565b5f611853600f83611815565b915061185e8261181f565b600f82019050919050565b5f61187382611847565b9150819050919050565b5f819050815f5260205f209050919050565b5f815461189b81611715565b6118a58186611815565b9450600182165f81146118bf57600181146118d457611906565b60ff1983168652811515820286019350611906565b6118dd8561187d565b5f5b838110156118fe578154818901526001820191506020810190506118df565b838801955050505b50505092915050565b5f61191a828461188f565b915081905092915050565b5f819050919050565b61193781611925565b82525050565b5f81519050919050565b5f82825260208201905092915050565b5f6119618261193d565b61196b8185611947565b935061197b81856020860161111c565b6119848161112a565b840191505092915050565b5f819050919050565b5f6119b26119ad6119a88461198f565b6112a9565b61107b565b9050919050565b6119c281611998565b82525050565b5f60a0820190506119db5f83018861192e565b6119e86020830187611262565b81810360408301526119fa8186611957565b9050611a0960608301856113da565b611a1660808301846119b9565b9695505050505050565b5f81519050611a2e81611084565b92915050565b5f60208284031215611a4957611a48611073565b5b5f611a5684828501611a20565b91505092915050565b5f611a698261128a565b9050919050565b611a7981611a5f565b82525050565b5f608082019050611a925f830187611a70565b611a9f602083018661192e565b611aac6040830185611262565b8181036060830152611abe8184611957565b905095945050505050565b5f80fd5b611ad681611a5f565b8114611ae0575f80fd5b50565b5f81519050611af181611acd565b92915050565b5f611b0182611a5f565b9050919050565b611b1181611af7565b8114611b1b575f80fd5b50565b5f81519050611b2c81611b08565b92915050565b611b3b81611365565b8114611b45575f80fd5b50565b5f81519050611b5681611b32565b92915050565b5f60e08284031215611b7157611b70611ac9565b5b611b7b60e06114b8565b90505f611b8a84828501611b48565b5f830152506020611b9d84828501611b48565b6020830152506040611bb184828501611b48565b6040830152506060611bc584828501611b48565b6060830152506080611bd984828501611b48565b60808301525060a0611bed84828501611a20565b60a08301525060c0611c0184828501611a20565b60c08301525092915050565b5f819050919050565b611c1f81611c0d565b8114611c29575f80fd5b50565b5f81519050611c3a81611c16565b92915050565b5f6102008284031215611c5657611c55611ac9565b5b611c616101406114b8565b90505f611c7084828501611ae3565b5f830152506020611c8384828501611ae3565b6020830152506040611c9784828501611b1e565b6040830152506060611cab84828501611b48565b6060830152506080611cbf84828501611b5c565b608083015250610160611cd484828501611c2c565b60a083015250610180611ce984828501611c2c565b60c0830152506101a0611cfe84828501611a20565b60e0830152506101c0611d1384828501611a20565b610100830152506101e0611d2984828501611a20565b6101208301525092915050565b5f6102008284031215611d4c57611d4b611073565b5b5f611d5984828501611c40565b91505092915050565b7f4d61726b6574206e6f74207265736f6c766564000000000000000000000000005f82015250565b5f611d9660138361131d565b9150611da182611d62565b602082019050919050565b5f6020820190508181035f830152611dc381611d8a565b9050919050565b7f4e6f2077696e6e696e677320746f20636c61696d0000000000000000000000005f82015250565b5f611dfe60148361131d565b9150611e0982611dca565b602082019050919050565b5f6020820190508181035f830152611e2b81611df2565b9050919050565b5f602082019050611e455f830184611a70565b92915050565b7f4e487b71000000000000000000000000000000000000000000000000000000005f52601160045260245ffd5b5f611e828261107b565b9150611e8d8361107b565b9250828202611e9b8161107b565b91508282048414831517611eb257611eb1611e4b565b5b5092915050565b7f4e487b71000000000000000000000000000000000000000000000000000000005f52601260045260245ffd5b5f611ef08261107b565b9150611efb8361107b565b925082611f0b57611f0a611eb9565b5b828204905092915050565b5f604082019050611f295f830185611a70565b611f366020830184611262565b9392505050565b5f60208284031215611f5257611f51611073565b5b5f611f5f84828501611b48565b91505092915050565b7f42657474696e6720706572696f64206973206f766572000000000000000000005f82015250565b5f611f9c60168361131d565b9150611fa782611f68565b602082019050919050565b5f6020820190508181035f830152611fc981611f90565b9050919050565b7f496e76616c6964206f7074696f6e0000000000000000000000000000000000005f82015250565b5f612004600e8361131d565b915061200f82611fd0565b602082019050919050565b5f6020820190508181035f83015261203181611ff8565b9050919050565b5f60608201905061204b5f830186611a70565b6120586020830185611a70565b6120656040830184611262565b949350505050565b5f6120778261107b565b91506120828361107b565b925082820190508082111561209a57612099611e4b565b5b92915050565b5f6040820190506120b35f830185611262565b6120c06020830184611262565b9392505050565b7f4174206c656173742074776f206f7074696f6e732072657175697265640000005f82015250565b5f6120fb601d8361131d565b9150612106826120c7565b602082019050919050565b5f6020820190508181035f830152612128816120ef565b9050919050565b7f5265736f6c7574696f6e2074696d65206d75737420626520696e2074686520665f8201527f7574757265000000000000000000000000000000000000000000000000000000602082015250565b5f61218960258361131d565b91506121948261212f565b604082019050919050565b5f6020820190508181035f8301526121b68161217d565b9050919050565b5f6020601f8301049050919050565b5f82821b905092915050565b5f600883026122077fffffffffffffffffffffffffffffffffffffffffffffffffffffffffffffffff826121cc565b61221186836121cc565b95508019841693508086168417925050509392505050565b5f61224361223e6122398461107b565b6112a9565b61107b565b9050919050565b5f819050919050565b61225c83612229565b6122706122688261224a565b8484546121d8565b825550505050565b5f90565b612284612278565b61228f818484612253565b505050565b5b818110156122b2576122a75f8261227c565b600181019050612295565b5050565b601f8211156122f7576122c88161187d565b6122d1846121bd565b810160208510156122e0578190505b6122f46122ec856121bd565b830182612294565b50505b505050565b5f82821c905092915050565b5f6123175f19846008026122fc565b1980831691505092915050565b5f61232f8383612308565b9150826002028217905092915050565b61234882611102565b67ffffffffffffffff8111156123615761236061145a565b5b61236b8254611715565b6123768282856122b6565b5f60209050601f8311600181146123a7575f8415612395578287015190505b61239f8582612324565b865550612406565b601f1984166123b58661187d565b5f5b828110156123dc578489015182556001820191506020850194506020810190506123b7565b868310156123f957848901516123f5601f891682612308565b8355505b6001600288020188555050505b505050505050565b5f6060820190508181035f830152612426818661132d565b9050818103602083015261243a8185611191565b90506124496040830184611262565b949350505050565b5f61245b8261107b565b91507fffffffffffffffffffffffffffffffffffffffffffffffffffffffffffffffff820361248d5761248c611e4b565b5b60018201905091905056fea2646970667358221220c1aefcba52a56c8f268b74cbbcdcc348ea1110565e0f68848c5e148af1d2250564736f6c634300081a0033",
  "linkReferences": {},
  "deployedLinkReferences": {}
}