{
  "_format": "hh-sol-artifact-1",
  "contractName": "Token",
  "sourceName": "contracts/Token.sol",
  "abi": [
    {
      "inputs": [],
      "stateMutability": "nonpayable",
      "type": "constructor"
    },
    {
      "inputs": [
        {
          "internalType": "address",
          "name": "spender",
          "type": "address"
        },
        {
          "internalType": "uint256",
          "name": "allowance",
          "type": "uint256"
        },
        {
          "internalType": "uint256",
          "name": "needed",
          "type": "uint256"
        }
      ],
      "name": "ERC20InsufficientAllowance",
      "type": "error"
    },
    {
      "inputs": [
        {
          "internalType": "address",
          "name": "sender",
          "type": "address"
        },
        {
          "internalType": "uint256",
          "name": "balance",
          "type": "uint256"
        },
        {
          "internalType": "uint256",
          "name": "needed",
          "type": "uint256"
        }
      ],
      "name": "ERC20InsufficientBalance",
      "type": "error"
    },
    {
      "inputs": [
        {
          "internalType": "address",
          "name": "approver",
          "type": "address"
        }
      ],
      "name": "ERC20InvalidApprover",
      "type": "error"
    },
    {
      "inputs": [
        {
          "internalType": "address",
          "name": "receiver",
          "type": "address"
        }
      ],
      "name": "ERC20InvalidReceiver",
      "type": "error"
    },
    {
      "inputs": [
        {
          "internalType": "address",
          "name": "sender",
          "type": "address"
        }
      ],
      "name": "ERC20InvalidSender",
      "type": "error"
    },
    {
      "inputs": [
        {
          "internalType": "address",
          "name": "spender",
          "type": "address"
        }
      ],
      "name": "ERC20InvalidSpender",
      "type": "error"
    },
    {
      "anonymous": false,
      "inputs": [
        {
          "indexed": true,
          "internalType": "address",
          "name": "owner",
          "type": "address"
        },
        {
          "indexed": true,
          "internalType": "address",
          "name": "spender",
          "type": "address"
        },
        {
          "indexed": false,
          "internalType": "uint256",
          "name": "value",
          "type": "uint256"
        }
      ],
      "name": "Approval",
      "type": "event"
    },
    {
      "anonymous": false,
      "inputs": [
        {
          "indexed": true,
          "internalType": "address",
          "name": "from",
          "type": "address"
        },
        {
          "indexed": true,
          "internalType": "address",
          "name": "to",
          "type": "address"
        },
        {
          "indexed": false,
          "internalType": "uint256",
          "name": "value",
          "type": "uint256"
        }
      ],
      "name": "Transfer",
      "type": "event"
    },
    {
      "inputs": [
        {
          "internalType": "address",
          "name": "owner",
          "type": "address"
        },
        {
          "internalType": "address",
          "name": "spender",
          "type": "address"
        }
      ],
      "name": "allowance",
      "outputs": [
        {
          "internalType": "uint256",
          "name": "",
          "type": "uint256"
        }
      ],
      "stateMutability": "view",
      "type": "function"
    },
    {
      "inputs": [
        {
          "internalType": "address",
          "name": "spender",
          "type": "address"
        },
        {
          "internalType": "uint256",
          "name": "value",
          "type": "uint256"
        }
      ],
      "name": "approve",
      "outputs": [
        {
          "internalType": "bool",
          "name": "",
          "type": "bool"
        }
      ],
      "stateMutability": "nonpayable",
      "type": "function"
    },
    {
      "inputs": [
        {
          "internalType": "address",
          "name": "account",
          "type": "address"
        }
      ],
      "name": "balanceOf",
      "outputs": [
        {
          "internalType": "uint256",
          "name": "",
          "type": "uint256"
        }
      ],
      "stateMutability": "view",
      "type": "function"
    },
    {
      "inputs": [],
      "name": "decimals",
      "outputs": [
        {
          "internalType": "uint8",
          "name": "",
          "type": "uint8"
        }
      ],
      "stateMutability": "view",
      "type": "function"
    },
    {
      "inputs": [
        {
          "internalType": "uint256",
          "name": "_amount",
          "type": "uint256"
        }
      ],
      "name": "getToken",
      "outputs": [],
      "stateMutability": "nonpayable",
      "type": "function"
    },
    {
      "inputs": [],
      "name": "name",
      "outputs": [
        {
          "internalType": "string",
          "name": "",
          "type": "string"
        }
      ],
      "stateMutability": "view",
      "type": "function"
    },
    {
      "inputs": [],
      "name": "symbol",
      "outputs": [
        {
          "internalType": "string",
          "name": "",
          "type": "string"
        }
      ],
      "stateMutability": "view",
      "type": "function"
    },
    {
      "inputs": [],
      "name": "totalSupply",
      "outputs": [
        {
          "internalType": "uint256",
          "name": "",
          "type": "uint256"
        }
      ],
      "stateMutability": "view",
      "type": "function"
    },
    {
      "inputs": [
        {
          "internalType": "address",
          "name": "to",
          "type": "address"
        },
        {
          "internalType": "uint256",
          "name": "value",
          "type": "uint256"
        }
      ],
      "name": "transfer",
      "outputs": [
        {
          "internalType": "bool",
          "name": "",
          "type": "bool"
        }
      ],
      "stateMutability": "nonpayable",
      "type": "function"
    },
    {
      "inputs": [
        {
          "internalType": "address",
          "name": "from",
          "type": "address"
        },
        {
          "internalType": "address",
          "name": "to",
          "type": "address"
        },
        {
          "internalType": "uint256",
          "name": "value",
          "type": "uint256"
        }
      ],
      "name": "transferFrom",
      "outputs": [
        {
          "internalType": "bool",
          "name": "",
          "type": "bool"
        }
      ],
      "stateMutability": "nonpayable",
      "type": "function"
    }
  ],
  "bytecode": "608060405234801561000f575f80fd5b506040518060400160405280600881526020017f4d7920546f6b656e0000000000000000000000000000000000000000000000008152506040518060400160405280600381526020017f4d59540000000000000000000000000000000000000000000000000000000000815250816003908161008b91906105b8565b50806004908161009b91906105b8565b5050506100d3336100b06100d860201b60201c565b600a6100bc91906107ef565b60646100c89190610839565b6100e060201b60201c565b610962565b5f6012905090565b5f73ffffffffffffffffffffffffffffffffffffffff168273ffffffffffffffffffffffffffffffffffffffff1603610150575f6040517fec442f0500000000000000000000000000000000000000000000000000000000815260040161014791906108b9565b60405180910390fd5b6101615f838361016560201b60201c565b5050565b5f73ffffffffffffffffffffffffffffffffffffffff168373ffffffffffffffffffffffffffffffffffffffff16036101b5578060025f8282546101a991906108d2565b92505081905550610283565b5f805f8573ffffffffffffffffffffffffffffffffffffffff1673ffffffffffffffffffffffffffffffffffffffff1681526020019081526020015f205490508181101561023e578381836040517fe450d38c00000000000000000000000000000000000000000000000000000000815260040161023593929190610914565b60405180910390fd5b8181035f808673ffffffffffffffffffffffffffffffffffffffff1673ffffffffffffffffffffffffffffffffffffffff1681526020019081526020015f2081905550505b5f73ffffffffffffffffffffffffffffffffffffffff168273ffffffffffffffffffffffffffffffffffffffff16036102ca578060025f8282540392505081905550610314565b805f808473ffffffffffffffffffffffffffffffffffffffff1673ffffffffffffffffffffffffffffffffffffffff1681526020019081526020015f205f82825401925050819055505b8173ffffffffffffffffffffffffffffffffffffffff168373ffffffffffffffffffffffffffffffffffffffff167fddf252ad1be2c89b69c2b068fc378daa952ba7f163c4a11628f55a4df523b3ef836040516103719190610949565b60405180910390a3505050565b5f81519050919050565b7f4e487b71000000000000000000000000000000000000000000000000000000005f52604160045260245ffd5b7f4e487b71000000000000000000000000000000000000000000000000000000005f52602260045260245ffd5b5f60028204905060018216806103f957607f821691505b60208210810361040c5761040b6103b5565b5b50919050565b5f819050815f5260205f209050919050565b5f6020601f8301049050919050565b5f82821b905092915050565b5f6008830261046e7fffffffffffffffffffffffffffffffffffffffffffffffffffffffffffffffff82610433565b6104788683610433565b95508019841693508086168417925050509392505050565b5f819050919050565b5f819050919050565b5f6104bc6104b76104b284610490565b610499565b610490565b9050919050565b5f819050919050565b6104d5836104a2565b6104e96104e1826104c3565b84845461043f565b825550505050565b5f90565b6104fd6104f1565b6105088184846104cc565b505050565b5b8181101561052b576105205f826104f5565b60018101905061050e565b5050565b601f8211156105705761054181610412565b61054a84610424565b81016020851015610559578190505b61056d61056585610424565b83018261050d565b50505b505050565b5f82821c905092915050565b5f6105905f1984600802610575565b1980831691505092915050565b5f6105a88383610581565b9150826002028217905092915050565b6105c18261037e565b67ffffffffffffffff8111156105da576105d9610388565b5b6105e482546103e2565b6105ef82828561052f565b5f60209050601f831160018114610620575f841561060e578287015190505b610618858261059d565b86555061067f565b601f19841661062e86610412565b5f5b8281101561065557848901518255600182019150602085019450602081019050610630565b86831015610672578489015161066e601f891682610581565b8355505b6001600288020188555050505b505050505050565b7f4e487b71000000000000000000000000000000000000000000000000000000005f52601160045260245ffd5b5f8160011c9050919050565b5f808291508390505b6001851115610709578086048111156106e5576106e4610687565b5b60018516156106f45780820291505b8081029050610702856106b4565b94506106c9565b94509492505050565b5f8261072157600190506107dc565b8161072e575f90506107dc565b8160018114610744576002811461074e5761077d565b60019150506107dc565b60ff8411156107605761075f610687565b5b8360020a91508482111561077757610776610687565b5b506107dc565b5060208310610133831016604e8410600b84101617156107b25782820a9050838111156107ad576107ac610687565b5b6107dc565b6107bf84848460016106c0565b925090508184048111156107d6576107d5610687565b5b81810290505b9392505050565b5f60ff82169050919050565b5f6107f982610490565b9150610804836107e3565b92506108317fffffffffffffffffffffffffffffffffffffffffffffffffffffffffffffffff8484610712565b905092915050565b5f61084382610490565b915061084e83610490565b925082820261085c81610490565b9150828204841483151761087357610872610687565b5b5092915050565b5f73ffffffffffffffffffffffffffffffffffffffff82169050919050565b5f6108a38261087a565b9050919050565b6108b381610899565b82525050565b5f6020820190506108cc5f8301846108aa565b92915050565b5f6108dc82610490565b91506108e783610490565b92508282019050808211156108ff576108fe610687565b5b92915050565b61090e81610490565b82525050565b5f6060820190506109275f8301866108aa565b6109346020830185610905565b6109416040830184610905565b949350505050565b5f60208201905061095c5f830184610905565b92915050565b6110978061096f5f395ff3fe608060405234801561000f575f80fd5b506004361061009c575f3560e01c806370a082311161006457806370a082311461015a57806395d89b411461018a578063a9059cbb146101a8578063dd62ed3e146101d8578063e4b50cb8146102085761009c565b806306fdde03146100a0578063095ea7b3146100be57806318160ddd146100ee57806323b872dd1461010c578063313ce5671461013c575b5f80fd5b6100a8610224565b6040516100b59190610b2b565b60405180910390f35b6100d860048036038101906100d39190610bdc565b6102b4565b6040516100e59190610c34565b60405180910390f35b6100f66102d6565b6040516101039190610c5c565b60405180910390f35b61012660048036038101906101219190610c75565b6102df565b6040516101339190610c34565b60405180910390f35b61014461030d565b6040516101519190610ce0565b60405180910390f35b610174600480360381019061016f9190610cf9565b610315565b6040516101819190610c5c565b60405180910390f35b61019261035a565b60405161019f9190610b2b565b60405180910390f35b6101c260048036038101906101bd9190610bdc565b6103ea565b6040516101cf9190610c34565b60405180910390f35b6101f260048036038101906101ed9190610d24565b61040c565b6040516101ff9190610c5c565b60405180910390f35b610222600480360381019061021d9190610d62565b61048e565b005b60606003805461023390610dba565b80601f016020809104026020016040519081016040528092919081815260200182805461025f90610dba565b80156102aa5780601f10610281576101008083540402835291602001916102aa565b820191905f5260205f20905b81548152906001019060200180831161028d57829003601f168201915b5050505050905090565b5f806102be6104b9565b90506102cb8185856104c0565b600191505092915050565b5f600254905090565b5f806102e96104b9565b90506102f68582856104d2565b610301858585610564565b60019150509392505050565b5f6012905090565b5f805f8373ffffffffffffffffffffffffffffffffffffffff1673ffffffffffffffffffffffffffffffffffffffff1681526020019081526020015f20549050919050565b60606004805461036990610dba565b80601f016020809104026020016040519081016040528092919081815260200182805461039590610dba565b80156103e05780601f106103b7576101008083540402835291602001916103e0565b820191905f5260205f20905b8154815290600101906020018083116103c357829003601f168201915b5050505050905090565b5f806103f46104b9565b9050610401818585610564565b600191505092915050565b5f60015f8473ffffffffffffffffffffffffffffffffffffffff1673ffffffffffffffffffffffffffffffffffffffff1681526020019081526020015f205f8373ffffffffffffffffffffffffffffffffffffffff1673ffffffffffffffffffffffffffffffffffffffff1681526020019081526020015f2054905092915050565b6104b63361049a61030d565b600a6104a69190610f46565b836104b19190610f90565b610654565b50565b5f33905090565b6104cd83838360016106d3565b505050565b5f6104dd848461040c565b90507fffffffffffffffffffffffffffffffffffffffffffffffffffffffffffffffff811461055e578181101561054f578281836040517ffb8f41b200000000000000000000000000000000000000000000000000000000815260040161054693929190610fe0565b60405180910390fd5b61055d84848484035f6106d3565b5b50505050565b5f73ffffffffffffffffffffffffffffffffffffffff168373ffffffffffffffffffffffffffffffffffffffff16036105d4575f6040517f96c6fd1e0000000000000000000000000000000000000000000000000000000081526004016105cb9190611015565b60405180910390fd5b5f73ffffffffffffffffffffffffffffffffffffffff168273ffffffffffffffffffffffffffffffffffffffff1603610644575f6040517fec442f0500000000000000000000000000000000000000000000000000000000815260040161063b9190611015565b60405180910390fd5b61064f8383836108a2565b505050565b5f73ffffffffffffffffffffffffffffffffffffffff168273ffffffffffffffffffffffffffffffffffffffff16036106c4575f6040517fec442f050000000000000000000000000000000000000000000000000000000081526004016106bb9190611015565b60405180910390fd5b6106cf5f83836108a2565b5050565b5f73ffffffffffffffffffffffffffffffffffffffff168473ffffffffffffffffffffffffffffffffffffffff1603610743575f6040517fe602df0500000000000000000000000000000000000000000000000000000000815260040161073a9190611015565b60405180910390fd5b5f73ffffffffffffffffffffffffffffffffffffffff168373ffffffffffffffffffffffffffffffffffffffff16036107b3575f6040517f94280d620000000000000000000000000000000000000000000000000000000081526004016107aa9190611015565b60405180910390fd5b8160015f8673ffffffffffffffffffffffffffffffffffffffff1673ffffffffffffffffffffffffffffffffffffffff1681526020019081526020015f205f8573ffffffffffffffffffffffffffffffffffffffff1673ffffffffffffffffffffffffffffffffffffffff1681526020019081526020015f2081905550801561089c578273ffffffffffffffffffffffffffffffffffffffff168473ffffffffffffffffffffffffffffffffffffffff167f8c5be1e5ebec7d5bd14f71427d1e84f3dd0314c0f7b2291e5b200ac8c7c3b925846040516108939190610c5c565b60405180910390a35b50505050565b5f73ffffffffffffffffffffffffffffffffffffffff168373ffffffffffffffffffffffffffffffffffffffff16036108f2578060025f8282546108e6919061102e565b925050819055506109c0565b5f805f8573ffffffffffffffffffffffffffffffffffffffff1673ffffffffffffffffffffffffffffffffffffffff1681526020019081526020015f205490508181101561097b578381836040517fe450d38c00000000000000000000000000000000000000000000000000000000815260040161097293929190610fe0565b60405180910390fd5b8181035f808673ffffffffffffffffffffffffffffffffffffffff1673ffffffffffffffffffffffffffffffffffffffff1681526020019081526020015f2081905550505b5f73ffffffffffffffffffffffffffffffffffffffff168273ffffffffffffffffffffffffffffffffffffffff1603610a07578060025f8282540392505081905550610a51565b805f808473ffffffffffffffffffffffffffffffffffffffff1673ffffffffffffffffffffffffffffffffffffffff1681526020019081526020015f205f82825401925050819055505b8173ffffffffffffffffffffffffffffffffffffffff168373ffffffffffffffffffffffffffffffffffffffff167fddf252ad1be2c89b69c2b068fc378daa952ba7f163c4a11628f55a4df523b3ef83604051610aae9190610c5c565b60405180910390a3505050565b5f81519050919050565b5f82825260208201905092915050565b8281835e5f83830152505050565b5f601f19601f8301169050919050565b5f610afd82610abb565b610b078185610ac5565b9350610b17818560208601610ad5565b610b2081610ae3565b840191505092915050565b5f6020820190508181035f830152610b438184610af3565b905092915050565b5f80fd5b5f73ffffffffffffffffffffffffffffffffffffffff82169050919050565b5f610b7882610b4f565b9050919050565b610b8881610b6e565b8114610b92575f80fd5b50565b5f81359050610ba381610b7f565b92915050565b5f819050919050565b610bbb81610ba9565b8114610bc5575f80fd5b50565b5f81359050610bd681610bb2565b92915050565b5f8060408385031215610bf257610bf1610b4b565b5b5f610bff85828601610b95565b9250506020610c1085828601610bc8565b9150509250929050565b5f8115159050919050565b610c2e81610c1a565b82525050565b5f602082019050610c475f830184610c25565b92915050565b610c5681610ba9565b82525050565b5f602082019050610c6f5f830184610c4d565b92915050565b5f805f60608486031215610c8c57610c8b610b4b565b5b5f610c9986828701610b95565b9350506020610caa86828701610b95565b9250506040610cbb86828701610bc8565b9150509250925092565b5f60ff82169050919050565b610cda81610cc5565b82525050565b5f602082019050610cf35f830184610cd1565b92915050565b5f60208284031215610d0e57610d0d610b4b565b5b5f610d1b84828501610b95565b91505092915050565b5f8060408385031215610d3a57610d39610b4b565b5b5f610d4785828601610b95565b9250506020610d5885828601610b95565b9150509250929050565b5f60208284031215610d7757610d76610b4b565b5b5f610d8484828501610bc8565b91505092915050565b7f4e487b71000000000000000000000000000000000000000000000000000000005f52602260045260245ffd5b5f6002820490506001821680610dd157607f821691505b602082108103610de457610de3610d8d565b5b50919050565b7f4e487b71000000000000000000000000000000000000000000000000000000005f52601160045260245ffd5b5f8160011c9050919050565b5f808291508390505b6001851115610e6c57808604811115610e4857610e47610dea565b5b6001851615610e575780820291505b8081029050610e6585610e17565b9450610e2c565b94509492505050565b5f82610e845760019050610f3f565b81610e91575f9050610f3f565b8160018114610ea75760028114610eb157610ee0565b6001915050610f3f565b60ff841115610ec357610ec2610dea565b5b8360020a915084821115610eda57610ed9610dea565b5b50610f3f565b5060208310610133831016604e8410600b8410161715610f155782820a905083811115610f1057610f0f610dea565b5b610f3f565b610f228484846001610e23565b92509050818404811115610f3957610f38610dea565b5b81810290505b9392505050565b5f610f5082610ba9565b9150610f5b83610cc5565b9250610f887fffffffffffffffffffffffffffffffffffffffffffffffffffffffffffffffff8484610e75565b905092915050565b5f610f9a82610ba9565b9150610fa583610ba9565b9250828202610fb381610ba9565b91508282048414831517610fca57610fc9610dea565b5b5092915050565b610fda81610b6e565b82525050565b5f606082019050610ff35f830186610fd1565b6110006020830185610c4d565b61100d6040830184610c4d565b949350505050565b5f6020820190506110285f830184610fd1565b92915050565b5f61103882610ba9565b915061104383610ba9565b925082820190508082111561105b5761105a610dea565b5b9291505056fea264697066735822122093d5598ef0ee336faba4ed1bf8cb1a8f5b9e6eaef79b81ab1b7d0cfd99d79df164736f6c634300081a0033",
  "linkReferences": {},
  "deployedLinkReferences": {}
}